:4000000000100020110000006D0300006D03000008B500F09BFD00F0ABF90000F8B572B680220021D2004A4800F00FFF8023DA004848002100F009FF0023181C4649FF259C
:400040005C584700261CAE431031E2B2351CC919002A07D00E784F787619013A3770D2B20231F5E7E4B204330019102BE6D1C0233A4D3B4F9904802499263A483A4B29609C
:400080003E60E103394E046040251960C0273848384935607C03384B384E046031250A6002221A609927356035488021354D3C040B06354E046080272B6034483449354B56
:4000C0003460354DBC05046019602E78062732432A702A78314C3A432A7020688021CB0203432F4D2F4E236028782F4F31783A78172A05D92D4B7878B978033F9F42F6D161
:400100002B4D2C4E2C4F19222860316005203A6000F0DEFA29482A4B01780520196000F00BFB284E2568284A2E4028482660202710241460264D0760264E274F8021274CE4
:40014000274A28480B062B60336014600760F8BD00300F4000400F40680E0000040001401000014000000440080004400001044008010440080304400004044008040440BC
:4001800000500F4004500F4010500F4018500F40100001002001054000700F4000010B40CCF1FF0FCDF1FF0FC9F1FF0FBDF1FF0F1CFF0B4020FF0B402CFF0B40E5F1FF0FD0
:4001C00028FF0B40FFFFFBFF080202402002024008010B4004010B40AF04008010000080000002404000024010B5064C2378002B07D10548002802D0044800E000BF0121B1
:40020000217010BDF000002000000000640E000008B5084B002B03D00748084900E000BF07480168002903D0064A002A00D0904708BDC04600000000640E0000F40000206B
:40024000D00000200000000010B562B600F0E2FC00280ED16524012000F058FA00F0DAFC002806D1013CE4B2002CF4D1034B40221A6000F0C1FC00F03BFCFEE7C0000020A4
:4002800008B500F0CDF800F005F900F06DF908BD70B5054B0D1C161C0024C9B21C8000F057F93580201C70BD0C010020F0B50A275F4387B002900591161C00252A4CBD428A
:4002C00019DA00F0D5F880B220802388002B0CD00220278800F01AFA00F0CAF881B221802288BA42F4D8002706E00120013500F00DFAADB2E2E705270025358020880028A4
:400300002FD023883088019301994218059993B233808B4221D201982A1893B2049304998D4209D002994819039000F087F8039A01351070ADB2F2E772B62088019A831AF0
:4003400099B2218062B602984219013A1378172BD4D0052000F0DAF9D0E7308000F09AF80527381C07B0F0BD0C01002000B5FEE770B50F490F4A01394B1C14D0506895684C
:400380001468031C1E1AAE4202D040CC40C3F9E7D0681D1C5C1B844202D0002640C3F9E710320139E8E700F021FDFFF74DFFFEE701000000B80E000008B500239A00032B41
:4003C00002D80C48815800E00B490C4801338150302BF3D1FFF722FE09490A4B086800221A60002800D1086080230122D9050A6008BDC046000000006D03000000000020B7
:40040000C0000020C800002008B5044B8022196810060843186000F049F908BD0000064008B5054B1A78002A03D10120187000F0BDF8FFF7E9FF08BD10010020094B00B5E7
:400440001968094B1A6891420AD019684A1C4039481E8141484205490240885C1A6000E0002000BDAC0100202401002068010020064B074A1B68116800B58B4202D31268B1
:40048000981A02E010684133181A00BDAC010020240100200C4A0D4B002130B5106811601D68802464022C431C601D68084C2C401C60084B084C1D68084B25601970084D01
:4004C00008492960106030BDC80F064004030640FFFFFEFF24010020AC010020A9010020C00F0640ED0F0000124910B50A68531C3F3A541EA241544223400F4A1468A342F1
:40050000FBD00C681268944208D10C4C0F2224682240082A02D00A4A10600AE0094C02222260094CC0B2E0540B60084B19680A431A6010BD200100201C0100200802064093
:4005400040020640800F064028010020880F064038B5041C4518AC4204D02078FFF7C4FF0134F8E738BD00000B4A0023116810B513600A4B80201C684002204318601C682F
:40058000074820401860074B07481C68022399430460116010BDC046880F064004020640FFFFFEFF1C010020200100201B4A1C4B1C4810B51C4900241A60046001221B4BBF
:4005C0001B480A601B490360072008601A491B4804600A601A4A13601A4B1C6000F06EF8194800F049F8032000F04CF817481849184A194B04600C60146018491C60184A44
:40060000184B04200860146017481C601749184A184B04600C7014601C6010BD0B000002000006404000064048000640070000800003064004030640440006401003064053
:400640000002064004020640250C0000880E0640C80E0640480F0640080F0640C80F0640880F0640AC01002024010020A9010020200100201C010020014B98667047C04668
:400680000000002038B5041C00F02BF8054B06491D68A2052C1C0C4014431C6000F025F838BDC04608E400E0FFFF3FFF8022024BD00018607047C04600E100E08022024B14
:4006C000D00018607047C04680E100E0000000000230800804D0C0460138FDD1C046C0467047EFF3108072B6704780F31088704701BE7047034B04491A6890B208431860AB
:400700007047C0460CED00E00400FA0510B5041C8022074B1002844205D91868FFF7D8FF04496418F4E758686043FFF7D1FF10BDD40000200080FFFF08B5034B197A48430F
:40074000FFF7C6FF08BDC046D40000200047000038B5041C013806280BD800F03DFB2406260F11080400174820E0174B09E0174B07E00020FFF7BCFF002302E0144B00E0B5
:40078000144B5A78187800021043022C04D0032C07D0012C15D104E0040A0302234398B20FE000BA0DE00C4800E00C48C578817842780378180628430D0228431104084375
:4007C000E3E738BDD87F0000C57F0000D47F0000D27F0000D67F0000C17F0000C97F000038B50220FFF7B4FF051C0320FFF7B0FF6C1CE1010C180220FFF7AAFF0023421CAD
:40080000D201191CA24209D21078451EEDB2FD2D00D80121C318DBB20132F3E705485B420578DCB2AC4201D0062002E00029FBD0002038BDC07F0000F0B5A34CA544FFF757
:400840001FFD62B600250095002603AF962124A849003A1CFF23FFF729FD0028F5D139880423062967D924AA1478012C63D193236B4492221F786A4413783C021C4324AFF9
:400880003A19177953790197E71D9C4603238F4251D89179042317294DD1E3189BB2002B08D0BAAA8949D7187A181778013BC01980B2F3E762464042019F110282B239431D
:4008C0000823914237D168E0342900D09AE0012D00D0F6E0032C00D0F3E06FA80021802200F0B3FA80266FA9881935192639E21EFF39AEB200F0A0FA832E00D0DAE0BC7948
:400900007979009F26020E43002F0AD1391C802204A800F09AFAFF2004A900F0F3F901200090301C6FA900F0EDF90125002800D1C3E000260A2300216846913001270370A9
:400940006A4624AC6B4692330E32277000200F1D197058701180BBB25C4FBAACE418E4192778013BC0199BB280B2002BF4D14442A0B2BAAF564C7B181F19564C38701F19B2
:40098000554C000A38701B19172707311F7089B224A89623FFF77CFC57E724AF79783B79081C31380A2801D90523C4E700F00AFA0611FC8C2FFC32428C507800012D00D0D7
:4009C0007FE0002C7DD1FFF70BFF434243413B7163E0012D75D1012C73D1002B71D13F4A25A8146821889524CF0907703A0A97209627FF216C446F446844397022700370BC
:400A0000042199E7012D5CD1022C5AD96BE7012D57D119E7012D54D19620371943009F424DD86FAA901925A9221C00F005FABEB2002380E7002C44D104AB294A191CA0CA52
:400A4000A0C125AF21CB21C708210125231C73E7012D36D1032C34D196226A449521177869440C7838021A0220438718FF01002280210139CC5D1219D2B20029F9D1002BF5
:400A800008D1FF2806D1174B174918780C78171A3A1BD2B2504224AB1871002301214BE7FFF79EFE002802D1104880240460FFF721FE06E00125002601E0061CB8E7032322
:400AC00039E7042337E7C04614FDFFFFA7FDFFFFACFDFFFFADFDFFFFAEFDFFFFE40000208C0E0000D07F0000D17F0000C0000020144810B50368002219680B1C013BBF2B49
:400B000003D01C781219D2B2F8E740680478A21AD3B2A34201D1002902D10020FFF7E8FDFFF75EFE084C2168221C402901D0002803D000231360FFF77FFE80202060FFF7EC
:400B4000D9FD10BDE4000020C000002008B50B4B10201A680A49024000D10A600B68802B0BD1002201200A60FFF7F2FD002804D00120FFF7EDFDFFF7E9FD08BD00030B40E1
:400B8000C00000200D4B8422D004186019688022500208431860196809481960C3239A000260084B084A09480021196002600849084B09481C2219600260704700010540A9
:400BC00024010540380105401027000014010540881300000C0105402801054008B5FFF780FD044B01211A680A431A60FFF77DFD08BDC0460000054010B5054C2378002BDB
:400C000003D1FFF7BFFF01202070FFF7E7FF10BD18010020024B18680106C80F7047C04604000440264B10B51868002800D0804724490A6852071DD5234C23681A0716D049
:400C4000224B234A186811684B1C40394C1EA1414C42204923400C68A34203D11E4B20221A70E9E71D49C0B2C8541360E4E71C49042008601B4A1468A20720D51A4B0F21B2
:400C800018680140082917D0184A194B1468186884420CD01C68621C3F3C601E8441614214480A40845C14490C601A60E6E7134C022122688A432260114B0220186010BDE0
:400CC00014010020CC0F06400803064040030640AC01002024010020A901002068010020C00F06408C0F064008020640200100201C0100202801002040020640880F0640ED
:400D0000800F0640F0B50023A7B0071C0193FF2845D8994243D0244A244C04AE26607F25049206A88022756000F086F8204D214929602B68002BFCDB2068A0210290029A87
:400D40000B069A4201D1002004E00298020F0F2A02D10920019003E021680B0F0A2BFBD1019A002A1DD12660134E3F0437430497FFF7B7FC1149124A0B6803932A602F683D
:400D8000002FFCDB039DA0260D60FFF7AEFC2468310602940298884203D0029800E001200190019827B0F0BDB6D70000080000400400004004000080B6D8000008010B4062
:400DC0000500008002B4714649084900095649008E4402BC7047C04602B4714649084900095C49008E4402BC7047C04670B50E4B0E4D0024E81A85101E1CAC4204D0A1003F
:400E0000725890470134F8E700F044F80849094A0E1C541AA5100024AC4204D0A300F05880470134F8E770BDA00E0000A00E0000A00E0000A80E000010B50023934203D0B7
:400E4000CC5CC4540133F9E710BD00B58218031C934202D019700133FAE700BDE80E0000050000000000000001330F4003410F4004430F4002600F40E61062048E04D84083
:400E800018808C40C608E608020111019311C80411140101F8B5C046F8BC08BC9E46704711020000B9030000F8B5C046F8BC08BC9E467047E9010000C80E0000D00000205B
:400EC00020000000C0000000000000000000E02EC05D00001800000000366E015C0E0000600E00000000000000000000000000000000000000000000000000000000000052
:400F000000100020110F0000E1120000E112000080B500AF024B83F3088800F0E5F9C0460010002080B584B000AF021CFB1D1A70204A3B1C0B3312781A701F4A3B1C0A3358
:400F400012781A700423013BFB6018E01B4B1868391C0B31FA68131C5B009B18C3185B780B70164B1868391C0A31FA68131C5B009B18C3189B780B70FB68013BFB60FB6892
:400F8000002B0ADB0D4B1968FA68131C5B009B185B5CFA1D12789A42D8D9094B3A1C0B3212781A60074B3A1C0A3212781A60BD4604B080BDCCF1FF0FCDF1FF0FD400002072
:400FC0001CFF0B4020FF0B4080B500AF1C4B1C4A12688021C9020A431A601820FFF7A2FF184B19221A60052001F03EFD164B174A1278D2B21A60052001F0FAFD104B104A7F
:401000001168134A0A401A60124B134A1A60134B20221A60124B10221A60124B30221A60114B802212061A60104B114A1A60114B114A1A60114B124A1A60BD4680BDC0462D
:4010400000010B402CFF0B4028FF0B40E5F1FF0FFFFFFBFF04010B400600008014020240180202402002024008010B4000000240FE00008040000240FE0000C0800002405C
:401080000100008080B582B000AF72B6FB1D00221A7023E0FB1D1A78131C5B009B185B003F4A9B183B603B681A78597809020A43997809040A43DB781B0613431A1C3B6825
:4010C00019795B791B020B439BB2101C191C00F091F9FB1D1A78FB1D01321A70FB1D1B78012BD7D92F4A304B101C191C00F092F92E4BCC2292041A602D4BEE2212021A6094
:401100002C4BFF221A602C4BFF221A602B4B61221A602B4BDB2212041A602A4B01221A60294BD82212011A60284B0F221A60284B0F221A60274B992212041A60264B9922E3
:4011400012041A60254BC02292051A60244B992212041A60234B802292051A60224B224A1278D2B202210A43D2B21A701F4B1F4A1278D2B20C218A43D2B204210A43D2B2E7
:401180001A70194B184A1278D2B216210A43D2B21A70FFF719FF00F07DF9BD4602B080BD303100003C31000054310000040001400C0001400000044018000440000104400F
:4011C000080104401801044008030440000404401804044000500F4010500F4018500F4030500F4038500F4000700F4001700F4010B5064C2378002B07D1054B002B02D022
:40120000044800E000BF0123237010BD48010020000000002831000008B5084B002B03D00748084900E000BF07480368002B03D0064B002B00D0984708BDC0460000000082
:40124000283100004C010020D00000200000000080B500AF62B601F033FB00F001FA00F0ABFD012001F0D8FC00F0DEFE00F058FAC04600F081FA031C002BFAD100F002F8B6
:40128000EFE7C04680B500AF002001F00DF8031C1A1C104B1A800F4B1A880F4B9A4202D10C4B00221A800B4B1A880C4B1B889A420DD0084B1A88094B1A80064B1B88002B49
:4012C00005D0044B1B885B02181C01F027FBBD4680BDC046C2010020FFFF0000C401002080B500AFFEE7C04680B586B000AF224B7B61224B3B61204B7B6135E03B691B68B9
:40130000FB603B695B68BB603B699B683B6000237B600CE0FB681A68BB681A60BB680433BB60FB680433FB607B6804337B607A683B689A42EED13B69DB683B6000237B6023
:4013400008E0BB6800221A60BB680433BB607B6804337B607A683B689A42F2D13B6910333B617B69013B7B617B69002BC6D101F0ADFEFFF76DFFFEE7010000009C32000061
:4013800080B582B000AF00237B600FE07B68032B04D8134B7A689200D35800E0114B124A796889008B507B6801337B607B682F2BECD9FFF767FE0D4B00221A600C4B1B6846
:4013C000002B02D10A4B00221A608023DB058022D205126801210A431A60BD4602B080BD000F0000E112000000000020C8000020C000002080B582B000AF786039607A685A
:401400003B68101C00211A1C01F086FEBD4602B080BDC04680B586B000AF7860396000233B6100237B612EE07B699B007A68D3181B68BB603B1C0F33BA681A70BB68FF224F
:401440009343BB6017E03B695B003A68D3181B781A1CBB68D3183A69520039688A1852781A703B6901333B613B1C0F331A783B1C0F33013A1A703B1C0F331B78002BE2D18E
:401480007B6901337B617B69052BCDD9BD4606B080BDC04680B500AF012000F003F8BD4680BDC04680B584B000AF021CFB1D1A70154B1B68FB60FB1D1B78002B05D0FB6828
:4014C000802212061343FB6003E0FB685B005B08FB600D4BFA681A600C4B1B68FB60FB1D1B78002B05D0FB68802292041343FB6003E0FA68064B1340FB60044BFA681A6053
:40150000BD4604B080BDC04680031A4008010B40FFFFFFFD80B582B000AF00237B6007E00A4A7B68D31800221A707B6801337B607B680B2BF4D900F00BF8002000F016FBD1
:4015400000F036F9BD4602B080BDC046EC01002080B582B000AF244B1B68DAB2234B1A70224B1B787B607B680F2293437B60204B1B78DBB21A1C0F2313407A6813437B60C2
:401580007B68F02293437B60194B1B78DBB21A1CF02313407A6813437B60134B7A681A60144B154A1A60154B154A1A60154B1B687B607A68144B13407B607B68C022D20063
:4015C00013437B600F4B7A681A600F2001F0F0FA0E4B0F20191C01F05BFA0F20032101F07DFABD4602B080BD00FF0840C801002062F1FF0F0800084000020001040008401A
:40160000C008A00110000140FFF0FFFF8D24000080B582B000AF01F0FDF901F0C5F90020002101F0CDF90020002101F0FFF901F0E3F901F0ABF9084B1B687B607B68074A3D
:4016400013437B60044B7A681A600F2001F09AFABD4602B080BDC046040008400010088080B500AF0C4B1B78002B04D1FFF752FF094B01221A70FFF7CBFF00F071FF074B76
:4016800001221A70064B064A12688021C9030A431A60BD4680BDC04680010020640100200400084080B584B000AF021CFB1D1A70FB1D1A78FB1D01321A70FB1D1B780C2B3D
:4016C00000D10BE0FB1D1B78074A101C191C00F065FA031CFB60FB68002BE9D0FB1D1B78181CBD4604B080BDD800002080B582B000AF7860084B00221A707B68DAB2074B48
:401700001A70054B81221A707B68181C00F05AF9BD4602B080BDC046660100206701002080B500AF124B00221A70124BFF221A70104B1B78DBB2181CFFF7B4FF031C1A1C9F
:401740000C4B1A700B4B1B78DBB20B2B0DD8084B1B78DBB201221343DAB2054B1A70054B1B78DBB2181C00F02DF9BD4680BDC046660100206701002080B500AF044B1B78D0
:40178000DBB21A1C01231340181CBD4680BDC0466601002080B582B000AF7860034B7A685200D35A181CBD4602B080BD6801002080B582B000AF00237B6006E07B68181C91
:4017C00000F070F87B6801337B607B680B2BF5D9BD4602B080BDC04690B587B000AF78602C4A7B68D3181B787B612B4A7B68D3181B78391C13311A1C9218D3180B70264AE5
:401800007B68D3181A783B1C123392001A703C1C113401F033F9031C2370204B7A699200D3581B68FB603B1C12331B780F22111C99400B1CDA43FB681340FB603B1C1233E4
:401840001B780422141C9C40231CFA681343FB60134B7A699200D358114A796989008A581268391C133109780720041C8C40211CC9430A401A60094B7A699200D358FA68A1
:401880001A603B1C11331B78181C01F0FBF8BD4607B090BD94310000D0310000E8310000FC31000090B589B000AF78603F4A7B68D3181B787B613E4A7B68D3181A783B1C4B
:4018C000133392001A703A4A7B68D3181B78391C12311A1C9218D3180B700023FB61354A7B68D3181B78BB61334B7A699200D358314A796989008A581268391C13310978CE
:401900000F20041C8C40211CC9430A401A60BB69022B01D10023BB61BB69012B01D00623FB613C1C113401F0A9F8031C2370234B7A699200D3581B68FB603B1C12331B787B
:401940000722111C99400B1CDA43FB681340FB603B1C12331B78FA69141C9C40231CFA681343FB60154B7A699200D358FA681A603B1C11331B78181C01F084F8104B7A690A
:401980009200D3580E4A796989008A58126808487968411809780120041C8C40211CC9430A401A60BD4609B090BDC04694310000D0310000EC010020E8310000FC310000FE
:4019C0001032000090B587B000AF78603B1C17333C497A688A1812781A703B1C17331A78394B9200D3583B61384A7B68D3181B78013B9BB2181C002100F0E2FF344A7B68E1
:401A0000D3181B78013B9BB2181C002101F00EF8304B1B78002B0FD00F2001F0C9F82E4B1B68FB60FB6840221343FB602A4BFA681A600F2001F0A6F80F2001F0B9F8274B3B
:401A40001B68FB60FA68264B1340FB60254A7B68D3181B781A1C24497B68CB181B781B041343FA681343FB601C4BFA681A601A4B1B68FB60FA681D4B1340FB60FB681C4AEC
:401A80001343FB600F2001F07DF87B68181CFFF7A3FE3C1C0B3400F0F1FF031C23700E4BFA681A60002000F0DFFF124B3A691A603B1C0B331B78181C00F0E4FFBD4607B083
:401AC00090BDC046DC3100000C01002004020020DC01002065010020040008400800084000FF80FFF8010020D0010020FF1FDFFF200020000C00084080B584B000AF78600C
:401B0000144B1B6899B2144B7A685200D1527B68181CFFF7C7FE0F2001F04AF80F4B1B68FB60FA680E4B1340FB60FB68A02212021343FB60094BFA681A600A4B094A1168B2
:401B4000094A0A401A600F2001F01CF8BD4604B080BDC0460C0008406801002004000840FF1FDFFF0800084000FF80FF80B584B000AF78607A68032313407B60064B1B6833
:401B8000FB607B685B02FA681343FB60024BFA681A60BD4604B080BD0400084080B584B000AF786039603B68DB08FB603A680723134001229A403B1C0B331A707A68FB6824
:401BC000D3181B783A1C0B3212781340DBB2002B01D0012300E00023181CBD4604B080BD80B586B000AFF860B9607A60BB68DB087B61BA680723134001229A403B1C13339F
:401C00001A707B68002B0DD0FA687B69D318F9687A698A1811783A1C133212780A43D2B21A700EE0FA687B69D318F9687A698A181278391C13310978C943C9B20A40D2B211
:401C40001A70BD4606B080BD80B584B000AF78600023BB600023FB6014E07B68181CFFF745FDC046FFF788FD031C012BFAD07B68181CFFF78FFD031CBA68D318BB60FB681C
:401C80000133FB60FB68002BE7D0BB689BB2181CBD4604B080BDC04680B588B000AF786039600023FB613AE000237B611F4AFB69D3181B783B611E4AFB69D3181B78BB6140
:401CC000BA693B69D318FB600FE03A68BB69D3181B781A1C7B699A4204D93A68BB69D3181B787B61BB690133BB61BA69FB689A42EBD30F4AFB69D3181B78BB6108E03A683C
:401D0000BB69D3187A69D2B21A70BB690133BB61BA69FB689A42F2D3FB690133FB61FA697B689A42C0D3BD4608B080BD283200002432000080B582B000AF78600E4B7A688E
:401D40005200D15A0D4B7A685200D1520C4A7B68D31800221A700B4A7B68D31800221A70054B7A685200D15A074B7A685200D152BD4602B080BDC04668010020840100201A
:401D80009C010020A80100201C02002080B582B000AF78607B68181CFFF7A8FCC046FFF7EBFC031C002BFAD17B68181CFFF7C2FFBD4602B080BDC04680B582B000AF0023C9
:401DC0007B6006E07B68181CFFF7E0FF7B6801337B607B680B2BF5D9BD4602B080BDC04690B587B000AF78603B1C0F337A497A688A1812781A703B1C0F331A783B1C0E33AB
:401E000076498A5C1A703B1C1033754A796849008A5A1A80734B1B78002B15D0724B7A685200D35A3C1C10343A1C10321288101C191C00F0E7FA031C23806B4B7A68520047
:401E4000391C10310988D1527B68DAB26749644B081C111C1A1C00F0DBFF654B7A685200D35A3A1C103212889A4212D3614A7B68D31800221A705E4B7A685200D25A3B1C70
:401E80001233391C103109888A1A1A8001237B610CE0574B7A685200D15A3B1C12333A1C103212888A1A1A8000237B617B69002B28D13B1C0F331B784F4AD35C3A1C1232EA
:401EC00012889A421ED94B4A7B68D3181A784B497B68CB181B789A4209D37B68181CFFF729FF444A7B68D31800221A704CE0414A7B68D3181B780133DAB23E497B68CB1879
:401F00001A7041E03B1C0E331B789BB23A1C123212889A420CD93B1C0F331B78364AD35C3A1C123212889A422ED27B69002B2BD12F4B7A685200D35A1B02BB60304A7B6823
:401F4000D3181B78BA681343BB603B1C10331B88BA68D318BB60264B7A685200D35ABA68D31ABB60BB681B0A99B2214B7A685200D152BB68DAB222497B68CB181A701D4AC8
:401F80007B68D31800221A703B1C0E331B789BB23A1C123212889A4216D97B69002B13D03B1C12331B88FF2B05D9164A7B68D318FF221A700DE03B1C12331B88DAB211490C
:401FC0007B68CB181A7004E00E4A7B68D31800221A70BD4607B090BDDC31000034020020680100201C0100201C0200205C0200208401002038020020140200201001002089
:402000009C010020A801002080B582B000AF78607B68181C00F02AFB7B68181CFFF7E0FEBD4602B080BDC04680B582B000AF00237B6011E00B4A7B68101C191CFFF7AEFDDE
:40204000031C3B603B68002B03D07B68181CFFF7DBFF7B6801337B607B680B2BEAD9BD4602B080BDD800002080B584B000AFFB1D1870BB1D19707B1D1A703B1C0E33FF2272
:402080001A703B1C0D3300221A70FB1D1A78204BD318BB603B1C0F3300221A702AE03B1C0F331B78BA68D3181B787A1D12789A4219D23B1C0F331B78BA68D3181B783A1C13
:4020C0000D3212789A420ED23B1C0E333A1C0F3212781A703B1C0F331B78BA68D2183B1C0D3312781A703B1C0F331A783B1C0F3301321A703A1C0F32BB1D12781B789A424C
:40210000CDD33B1C0E331B78181CBD4604B080BDA801002090B589B000AF041C081C111C1A1CFB1D1C70BB1D18707B1D1970BB1C1A80BB1D1A785A4BD318BB613B1C1F33BA
:4021400000221A70FB1D1B78002B05D03B1C1F33FA1D1278013A1A703B1C1733FA1D127801321A70FB1D1B78BA69D3181A784D4B5A70FB1D1B78002B0BD14A4B00221A705A
:402180003B1C17331B78BA69D3181A78454B9A7022E0FB1D1A787B1D1B78013B9A420BD13B1C1F331B78BA69D3181A783D4B1A703C4B00229A700FE03B1C1F331B78BA69F7
:4021C000D3181A78374B1A703B1C17331B78BA69D3181A78334B9A70324B1B783A1C303212789A4209D22F4B1A783B1C30331B78D31ADAB22B4B1A7002E02A4B00221A701C
:40220000284B5A783B1C30331B78D31ADAB2254B5A70244B9B783A1C303212789A4209D2204B9A783B1C30331B78D31ADAB21D4B9A7002E01B4B00229A701A4B9B781A1C07
:40224000184B1B78D31A3B61164B1B781A1C154B5B78D218134B9B78D318FB603B691B02181CF96800F0D0FE031C1A1CFB1D1B781B02D318FB60BB1C1B881AB2FB6853432B
:40228000FB60FB68FE22D2019B181A0C3B1C0B331A703B1C0B331B78181CBD4609B090BDA8010020BC01002090B587B002AF78603B1C0D334E497A688A1812781A703B1C48
:4022C0000C334C497A688A1812781A703B1C0B3300221A703B1C0A330C221A70464A7B68D3181B783C1C09343A1C0B3211783A1C0A321278081C111C1A1CFFF7B5FE031CD8
:4023000023703B1C09331B78FF2B59D03B4B3C497A688A1814783A1C093210783A1C0B3211783A1C0A3212780094FFF7F3FE031C1A1C3B1C0E331A803B1C0C331A781F23B9
:4023400013404ED03B1C08333A1C0D32127801321A703B1C0D331B78254AD35C002B0FD13B1C08331B783A1C0E321288D1B2204AD1543B1C0D331B781D4A0121D15430E05C
:402380003B1C0C331A78102313402AD03B1C08331B78174AD35C3C1C0E343A1C0E321288101C191C00F04CF8031C23803B1C08331B783A1C0E321288D1B20D4AD15410E05B
:4023C0003B1C0E33012252421A803B1C0C331A781F23134005D03B1C0D331B78044A0021D1543B1C0E331B88181CBD4605B090BD2801002024010020100200208B0B0000DA
:402400003402002080B584B000AF0A1CBB1D011C19803B1D1A80BB1D1A883B1D1B88D318FB603B1D1B885B00FA68D318FB60FB689B08FB60FB689BB2181CBD4604B080BD96
:4024400080B582B000AF0A1CBB1D011C19803B1D1A80BA1D3B1D12881B889A4205D9BB1D1A88BB1D013A1A800AE0BA1D3B1D12881B889A4204D2BB1D1A88BB1D01321A802C
:40248000BB1D1B88181CBD4602B080BD80B500AF0F2000F08DFB2C4B01221A602B4B1B78DBB2181CFFF728FB294B1B78DBB2DBB25BB2002B08DA264B1B78DBB20122934334
:4024C000DAB2234B1A703AE0204B1B78DBB2181CFFF7E8F8031C1A1C1C4B1A701B4B1B78DBB20B2B06D8194B1B78DBB2181CFFF769FA24E0164B1B78DBB201229343DAB2AE
:40250000134B1A70124B1B78DBB21A1C4023134015D0104B00221A700DE00E4B1B780D4A12780D49895C0D4AD1540A4B1B780133DAB2084B1A70074B1B78012BEDD90F2062
:4025400000F020FBBD4680BD140008406701002066010020C0010020E8010020D800002080B582B000AF374B0C221A70354B01225A70344B0C229A70324B1822DA80314BC2
:40258000314A9A802F4B314A9A6000F0E5F800233B6007E02E4B3A6892002E49D1503B6801333B60274B5B781A1C3B689A42F1D800237B600CE0284A7B68D31804221A70D1
:4025C000264A7B68D31802221A707B6801337B607B680B2BEFD900F0CBF81A4A204B101C191C00F05FFB1F4B0120191CFFF754FB144B181C00F068FB1B4B01221A70114A96
:40260000174B101C191C00F04DFB164B0120191CFFF742FB0B4B181C00F07AFB094B181C00F0C0F800237B6006E07B68181C00F01DF87B6801337B607B680B2BF5D9BD46BA
:4026400002B080BD5C02002066020000403200000C0100200000FF0FDC010020040200209A0D0000F80100206501002090B587B002AF7860314A7B68D3181B78FB607B6850
:40268000D9B2FB68DBB22E482E4A2F4C00942F4C019400F049FC3B1C0B332B49FA688A1812781A70294AFB68D3181A782849FB68CB181A703B1C0B331B78DB2B09D83B1C42
:4026C0000B331B78DB08DAB22249FB68CB181A7031E03B1C0B331B78EC2B09D83B1C0B331B781B09DAB21B49FB68CB181A7022E03B1C0B331B78F42B09D83B1C0B331B78D0
:402700005B09DAB21349FB68CB181A7013E03B1C0B331B78F92B09D83B1C0B331B789B09DAB20C49FB68CB181A7004E0094AFB68D31800221A70BD4605B090BDDC3100009D
:402740005C020020680100201002002034020020140200201802002080B500AF034B034A126840218A431A60BD4680BD0400084080B582B000AF094B1B687B607A68084B30
:4027800013407B607B688022920013437B60034B7A681A60BD4602B080BDC04608000840FFFCFFFC80B584B000AF78600023FB6017E01A4AFB68D3181B785B08DAB21849C1
:4027C000FB68CB181A70154AFB68D3181B7801335B08DAB21149FB68CB181A70FB680133FB607B681B781A1CFB689A42E1D80F2000F0DEF90B4B1B68BB60BA680A4B134032
:40280000BB60BB68094A1343BB60064BBA681A600F2000F0B7F9BD4604B080BDF8010020D001002008000840FFFCFFFC0002000180B500AF104B8022D2041A600E4B0E4AB1
:4028400012681A60002000F04DF80B4B0A4A12681A600A4B0C221A60002000F08BF8084B31221A60074B181C00F04AF8012000F055F8BD4680BDC0460001054024010540B5
:4028800028010540FFFF000090B583B000AFFC1D00F0F4F8031C2370084B084A126801210A431A60FB1D1B78181C00F0EBF80120182100F041F8BD4603B090BD0000054059
:4028C00080B500AF064B1B78002B04D1FFF7B0FF034B01221A70FFF7D7FFBD4680BDC046C101002080B582B000AF7860034B7A681204120C1A60BD4602B080BD0801054070
:4029000080B582B000AF7860034B7A681204120C1A60BD4602B080BD1401054080B582B000AF7860034B7A681204120C1A60BD4602B080BD0C01054090B585B000AF78606E
:4029400039603C1C0F3400F099F8031C2370084B3A687968081C9040021C1A603B1C0F331B78181C00F08EF8BD4605B090BDC0460800054080B582B000AF7860024B7A6843
:402980001A60BD4602B080BD3801054080B500AF044B044A1268802109060A431A60BD4680BDC0460000024080B500AF034B034A1268520052081A60BD4680BD0000024092
:4029C00080B584B000AF0A1CBB1D011C19807B1D1A70084B1B681B0C1B04FB60BB1D1A88FB681343BB60034BBA681A60BD4604B080BDC0460000024080B500AF044B044A7D
:402A00001268802109060A431A60BD4680BDC0464000024080B500AF034B034A1268520052081A60BD4680BD4000024080B584B000AF0A1CBB1D011C19807B1D1A70084BBB
:402A40001B681B0C1B04FB60BB1D1A88FB681343BB60034BBA681A60BD4604B080BDC04640000240000000000230800804D0C0460138FDD1C046C046C0467047EFF31080A8
:402A800072B6704780F310887047C046C046C04680B584B000AF021C3960FB1D1A7080239B05FB60FB1D1B781F2B02D9002000F095F8FB1D1B7810339B00FA68D3181B688E
:402AC000BB60FB1D1B7810339B00FA68D3183A681A60BB68181CBD4604B080BD90B587B000AF0A1CFB1D011C1970BB1D1A70BB1D1B78032B02D9002000F070F8FB1D1B7876
:402B00001F2B02D9002000F069F8FB1D1A7803231340DB0006337B613C1C1334FFF7AEFF031C2370FB1D1B789B08DBB29B0014495B181B68FB607B690322111C99400B1C9E
:402B4000DA43FB681340FB60BB1D1A787B69111C99400B1CFA681343FB60FB1D1B789B08DBB29B00064A9B18FA681A603B1C13331B78181CFFF786FFBD4607B090BDC04658
:402B800000E400E080B582B000AF021CFB1D1A70064BFA1D11781F220A400121081C9040021C1A60BD4602B080BDC04600E100E080B582B000AF021CFB1D1A70064BFA1D5A
:402BC00011781F220A400121081C9040021C1A60BD4602B080BDC04680E100E080B582B000AF021CFB1D1A7001BEBD4602B080BD80B582B000AF021CBB1D1A80BB1D1B8832
:402C0000044A12785343181CFFF72EFFBD4602B080BDC0464001002080B584B000AF021CFB1D1A700D4B1B68D9B23B1C0F337F220A401A70FB1D1B78DB01D9B23B1C0F337F
:402C40003A1C0F3212780A431A70044B3A1C0F3212781A60BD4604B080BDC04600010440F7B59C180023071C01910092237008268025207828432070B96800984A6A90472C
:402C8000019B984202D22078A8432070013E6D08002EEED12178CFB2F82F01D9082671422170F7BD70B5051C0E1C00242B789C4208D2A868221C0368311C281CFFF7D0FFD7
:402CC0000134F3E770BD000038B5051C00242B789C4218D2AA681168085DC3080F2B00D90F230949D268C85C1055AA680748042B03D9536B211C012202E0536B211C00225D
:402D000098470134E3E738BD30320000CC010020F0B5051C89B000266B789E4265D2AC68206A815D0291002901D101220292E7692978BB5D00930098884201D30136EBE7B6
:402D4000A268009F0F21D35DA4690B402849B000049300227B00225003905818254C0590254819191B18069107933C1C0192009F029AD1198C42E1D2AF68AB88FA68E88872
:402D8000115D584300F040F93968095D00F0EEF8049B1A49584340005A2802D949084008FAE7BF690A0C039913047B50144F154B8208385514491A55144AC0080F27085535
:402DC00017550199012305985A424252069A0798002353524352A9688B681A191078013407401770019A0232C0E709B0F0BDC04668020020A4020020800200200000FFFFAC
:402E000098020020BC0200205002002044020020F0B53E4F4B00DC5B9A5A89B0DA53161B3B4F02967D5C9C466C003A4D059467467C5B394E394F735C03946646F55B876896
:402E4000374C0495BD68665C6C5C029D0696059EEF0F0794F4190F273C40EE170194AC1974409C4203D2012B05D0013B00E00133FF263F2B00D89E00274D019F6B540F2F24
:402E800029D0002F24D0B44225D8079C039D26090596141EAC4200D92C1C049FBA4200D23A1C059E09250027B5427F41F5190A2D13D1171B0397039E5F1CB34205D9069FB6
:402EC000BE089E42BF417E429F1B164B5F5404E0141C019D01E0141C00256E4637790C4B66465F540B4F0F23BC530C4C2D01A253826897687E183478234033708068826883
:402F000051180F783D430D7009B0F0BD80020020440200206802002050020020A402002098020020BC02002010B50E480E4A525C415CFF203F2901D88C00E0B24CB2002C76
:402F400002DB4C00E1B200E0FF21824202D95008C1B200E0021C01240298A243C254039AD15410BDBC02002098020020002934D00123002210B488422CD301242407A14219
:402F800004D2814202D209011B01F8E7E400A14204D2814202D249005B00F8E7884201D3401A1A434C08A04202D3001B5C0822438C08A04202D3001B9C082243CC08A0427F
:402FC00002D3001BDC082243002803D01B0901D00909E3E7101C10BC7047002801D00020C04307B4024802A14018029003BDC046D90000000029F0D003B5FFF7B9FF0EBCB7
:403000004243891A1847C046002941D010B4041C4C40A44601230022002900D54942002800D5404288422CD301242407A14204D2814202D209011B01F8E7E400A14204D216
:40304000814202D249005B00F8E7884201D3401A1A434C08A04202D3001B5C0822438C08A04202D3001B9C082243CC08A04202D3001BDC082243002803D01B0901D0090992
:40308000E3E7101C6446002C00D5404210BC7047002806D003DB0020C043400801E08020000607B4024802A14018029003BDC046190000000029EBD003B5FFF7A7FF0EBC29
:4030C0004243891A1847C0467047C04670B50E4B0E4D0024ED1AAD101E1CAC4204D0A300F35898470134F8E700F0C6F8084B094D0024ED1AAD101E1CAC4204D0A300F358BF
:4031000098470134F8E770BD8432000084320000843200008C320000031C8218934202D019700133FAE77047000000000400000000300F40000400400F40000404300F403D
:4031400001310F4003330F4007410F4003420F400D430F4038803E4058045F011801B401E210E6086302660887018E08D640D880E6106C407008DC031A80228061028680E2
:403180008E40A102B448B502C608C808D802E208EC08000004040100000000000000000402000000010000000100000080000000400000002000000010000000080000008C
:4031C000040000000200000001000000080000000100000706050403020100030000000000000000000000000000014004000140080001400C0001401000014008000440E7
:40320000080104400802044008030440080404400000044000010440000204400003044000040440000000000C0000008B0B00000101010202020204040404040404040425
:40324000F8010020D00100202C010020DC01002004020020DC3100000C0100202432000028320000491C0000C5190000951700009D1B0000E11B0000F8B5C046F8BC08BC1C
:403280009E4670471912000081130000F8B5C046F8BC08BC9E467047F1110000B0320000D000002078000000800100000000000000000000C0F1FF0FFF0F00000804044004
:4032C00008040440080104400800044008000440080004400800044008000440080004400800044008000440080404400000FF0F1E1E1E1E1E1E1E1E1E1E1E1E010000000A
:4033000001000000100000000100000004040404040404040404040400366E01C05D0000180000000000E02E00000000000000000000000000000000000000000000000063
:40334000000000000000000000000000000000000000000000000000000000000000000000000000000000000000000000000000000000000000000000000000000000004D
:40338000000000000000000000000000000000000000000000000000000000000000000000000000000000000000000000000000000000000000000000000000000000000D
:4033C00000000000000000000000000000000000000000000000000000000000000000000000000000000000000000000000000000000000000000000000000000000000CD
:40340000000000000000000000000000000000000000000000000000000000000000000000000000000000000000000000000000000000000000000000000000000000008C
:407FC0003E110F00001D0000008024000000000000000100000000000000000000000000000000000000000000000000000000000000000000000000000000000000000061
:0200000490303A
:020000009ED48C
:0200000490402A
:20000000FFFF010000000000000000000000000000000000000000000000000000000000E1
:0200000490501A
:0C000000000204C81193110004D8B0677E
:0200000490600A
:0100000001FE
:00000001FF